{
  "_format": "hh-sol-artifact-1",
  "contractName": "gasChallenge",
  "sourceName": "contracts/gasChallenge.sol",
  "abi": [
    {
      "inputs": [],
      "name": "getSumOfArray",
      "outputs": [
        {
          "internalType": "uint256",
          "name": "",
          "type": "uint256"
        }
      ],
      "stateMutability": "view",
      "type": "function"
    },
    {
      "inputs": [],
      "name": "notOptimizedFunction",
      "outputs": [],
      "stateMutability": "nonpayable",
      "type": "function"
    },
    {
      "inputs": [],
      "name": "optimizedFunction",
      "outputs": [],
      "stateMutability": "nonpayable",
      "type": "function"
    }
  ],
  "bytecode": "0x6080604052604051806101400160405280600160ff168152602001600260ff168152602001600360ff168152602001600460ff168152602001600560ff168152602001600660ff168152602001600760ff168152602001600860ff168152602001600960ff168152602001600a60ff16815250600090600a610082929190610095565b5034801561008f57600080fd5b506100f7565b82600a81019282156100c9579160200282015b828111156100c8578251829060ff169055916020019190600101906100a8565b5b5090506100d691906100da565b5090565b5b808211156100f35760008160009055506001016100db565b5090565b610332806101066000396000f3fe608060405234801561001057600080fd5b50600436106100415760003560e01c806368b5f223146100465780637ce418941461005057806380d2c8031461005a575b600080fd5b61004e610078565b005b6100586100b4565b005b610062610140565b60405161006f9190610207565b60405180910390f35b60005b600a8110156100b15760008082600a811061009957610098610222565b5b018190555080806100a990610280565b91505061007b565b50565b600080600a806020026040519081016040528092919082600a80156100ee576020028201915b8154815260200190600101908083116100da575b5050505050905060005b600a81101561012a5760008282600a811061011657610115610222565b5b6020020181815250506001810190506100f8565b5080600090600a61013c929190610191565b5050565b6000806000905060005b600a81101561018957600081600a811061016757610166610222565b5b01548261017491906102c8565b9150808061018190610280565b91505061014a565b508091505090565b82600a81019282156101c0579160200282015b828111156101bf5782518255916020019190600101906101a4565b5b5090506101cd91906101d1565b5090565b5b808211156101ea5760008160009055506001016101d2565b5090565b6000819050919050565b610201816101ee565b82525050565b600060208201905061021c60008301846101f8565b92915050565b7f4e487b7100000000000000000000000000000000000000000000000000000000600052603260045260246000fd5b7f4e487b7100000000000000000000000000000000000000000000000000000000600052601160045260246000fd5b600061028b826101ee565b91507fffffffffffffffffffffffffffffffffffffffffffffffffffffffffffffffff82036102bd576102bc610251565b5b600182019050919050565b60006102d3826101ee565b91506102de836101ee565b92508282019050808211156102f6576102f5610251565b5b9291505056fea2646970667358221220ef86041f79d00ddaf15d5bd5a2f992fb42f62cc7493161d1bfd71ff54ea098a064736f6c63430008120033",
  "linkReferences": {},
  "deployedLinkReferences": {}
}